{
  "abi": [
    {
      "inputs": [],
      "name": "AlreadyInitialized",
      "type": "error"
    },
    {
      "inputs": [],
      "name": "DeadlineBeforeEndTime",
      "type": "error"
    },
    {
      "inputs": [],
      "name": "DeadlinePassed",
      "type": "error"
    },
    {
      "inputs": [
        {
          "internalType": "address",
          "name": "duplicateToken",
          "type": "address"
        }
      ],
      "name": "DuplicateFeeOutput",
      "type": "error"
    },
    {
      "inputs": [],
      "name": "EndTimeBeforeStartTime",
      "type": "error"
    },
    {
      "inputs": [
        {
          "internalType": "address",
          "name": "token",
          "type": "address"
        },
        {
          "internalType": "uint256",
          "name": "amount",
          "type": "uint256"
        },
        {
          "internalType": "address",
          "name": "recipient",
          "type": "address"
        }
      ],
      "name": "FeeTooLarge",
      "type": "error"
    },
    {
      "inputs": [],
      "name": "IncorrectAmounts",
      "type": "error"
    },
    {
      "inputs": [],
      "name": "InputAndOutputDecay",
      "type": "error"
    },
    {
      "inputs": [],
      "name": "InsufficientEth",
      "type": "error"
    },
    {
      "inputs": [
        {
          "internalType": "address",
          "name": "feeToken",
          "type": "address"
        }
      ],
      "name": "InvalidFeeToken",
      "type": "error"
    },
    {
      "inputs": [],
      "name": "InvalidOutLength",
      "type": "error"
    },
    {
      "inputs": [],
      "name": "InvalidReactor",
      "type": "error"
    },
    {
      "inputs": [],
      "name": "InvalidThreshold",
      "type": "error"
    },
    {
      "inputs": [],
      "name": "NativeTransferFailed",
      "type": "error"
    },
    {
      "inputs": [],
      "name": "NoExclusiveOverride",
      "type": "error"
    },
    {
      "inputs": [],
      "name": "OrderEndTimeBeforeStartTime",
      "type": "error"
    },
    {
      "inputs": [],
      "name": "PartialFillOverflow",
      "type": "error"
    },
    {
      "inputs": [],
      "name": "PartialFillUnderflow",
      "type": "error"
    },
    {
      "inputs": [],
      "name": "QuantityLtThreshold",
      "type": "error"
    },
    {
      "inputs": [],
      "name": "RelativeErrTooBig",
      "type": "error"
    },
    {
      "inputs": [],
      "name": "Unauthorized",
      "type": "error"
    },
    {
      "anonymous": false,
      "inputs": [
        {
          "indexed": true,
          "internalType": "bytes32",
          "name": "orderHash",
          "type": "bytes32"
        },
        {
          "indexed": true,
          "internalType": "address",
          "name": "filler",
          "type": "address"
        },
        {
          "indexed": true,
          "internalType": "address",
          "name": "swapper",
          "type": "address"
        },
        {
          "indexed": false,
          "internalType": "uint256",
          "name": "nonce",
          "type": "uint256"
        }
      ],
      "name": "Fill",
      "type": "event"
    },
    {
      "anonymous": false,
      "inputs": [
        {
          "indexed": true,
          "internalType": "address",
          "name": "owner",
          "type": "address"
        }
      ],
      "name": "LogSetOwner",
      "type": "event"
    },
    {
      "anonymous": false,
      "inputs": [
        {
          "indexed": false,
          "internalType": "address",
          "name": "oldFeeController",
          "type": "address"
        },
        {
          "indexed": false,
          "internalType": "address",
          "name": "newFeeController",
          "type": "address"
        }
      ],
      "name": "ProtocolFeeControllerSet",
      "type": "event"
    },
    {
      "inputs": [
        {
          "components": [
            {
              "internalType": "bytes",
              "name": "order",
              "type": "bytes"
            },
            {
              "internalType": "bytes",
              "name": "sig",
              "type": "bytes"
            }
          ],
          "internalType": "struct SignedOrder",
          "name": "order",
          "type": "tuple"
        },
        {
          "internalType": "uint256",
          "name": "quantity",
          "type": "uint256"
        }
      ],
      "name": "execute",
      "outputs": [],
      "stateMutability": "payable",
      "type": "function"
    },
    {
      "inputs": [
        {
          "components": [
            {
              "internalType": "bytes",
              "name": "order",
              "type": "bytes"
            },
            {
              "internalType": "bytes",
              "name": "sig",
              "type": "bytes"
            }
          ],
          "internalType": "struct SignedOrder[]",
          "name": "orders",
          "type": "tuple[]"
        },
        {
          "internalType": "uint256[]",
          "name": "quantities",
          "type": "uint256[]"
        }
      ],
      "name": "executeBatch",
      "outputs": [],
      "stateMutability": "payable",
      "type": "function"
    },
    {
      "inputs": [
        {
          "components": [
            {
              "internalType": "bytes",
              "name": "order",
              "type": "bytes"
            },
            {
              "internalType": "bytes",
              "name": "sig",
              "type": "bytes"
            }
          ],
          "internalType": "struct SignedOrder[]",
          "name": "orders",
          "type": "tuple[]"
        },
        {
          "internalType": "uint256[]",
          "name": "quantities",
          "type": "uint256[]"
        },
        {
          "internalType": "bytes",
          "name": "callbackData",
          "type": "bytes"
        }
      ],
      "name": "executeBatchWithCallback",
      "outputs": [],
      "stateMutability": "payable",
      "type": "function"
    },
    {
      "inputs": [
        {
          "components": [
            {
              "internalType": "bytes",
              "name": "order",
              "type": "bytes"
            },
            {
              "internalType": "bytes",
              "name": "sig",
              "type": "bytes"
            }
          ],
          "internalType": "struct SignedOrder",
          "name": "order",
          "type": "tuple"
        },
        {
          "internalType": "uint256",
          "name": "quantity",
          "type": "uint256"
        },
        {
          "internalType": "bytes",
          "name": "callbackData",
          "type": "bytes"
        }
      ],
      "name": "executeWithCallback",
      "outputs": [],
      "stateMutability": "payable",
      "type": "function"
    },
    {
      "inputs": [],
      "name": "feeController",
      "outputs": [
        {
          "internalType": "contract IProtocolFeeController",
          "name": "",
          "type": "address"
        }
      ],
      "stateMutability": "view",
      "type": "function"
    },
    {
      "inputs": [
        {
          "internalType": "contract IPermit2",
          "name": "_permit2",
          "type": "address"
        },
        {
          "internalType": "address",
          "name": "_owner",
          "type": "address"
        }
      ],
      "name": "initialize",
      "outputs": [],
      "stateMutability": "nonpayable",
      "type": "function"
    },
    {
      "inputs": [],
      "name": "initialized",
      "outputs": [
        {
          "internalType": "bool",
          "name": "",
          "type": "bool"
        }
      ],
      "stateMutability": "view",
      "type": "function"
    },
    {
      "inputs": [],
      "name": "owner",
      "outputs": [
        {
          "internalType": "address",
          "name": "",
          "type": "address"
        }
      ],
      "stateMutability": "view",
      "type": "function"
    },
    {
      "inputs": [],
      "name": "permit2",
      "outputs": [
        {
          "internalType": "contract IPermit2",
          "name": "",
          "type": "address"
        }
      ],
      "stateMutability": "view",
      "type": "function"
    },
    {
      "inputs": [
        {
          "internalType": "address",
          "name": "owner_",
          "type": "address"
        }
      ],
      "name": "setOwner",
      "outputs": [],
      "stateMutability": "nonpayable",
      "type": "function"
    },
    {
      "inputs": [
        {
          "internalType": "address",
          "name": "_newFeeController",
          "type": "address"
        }
      ],
      "name": "setProtocolFeeController",
      "outputs": [],
      "stateMutability": "nonpayable",
      "type": "function"
    },
    {
      "stateMutability": "payable",
      "type": "receive"
    }
  ],
  "bytecode": {
    "object": "0x608060405234801561001057600080fd5b50600160025561358c806100256000396000f3fe6080604052600436106100c05760003560e01c80636411e81611610074578063bccd8d091161004e578063bccd8d0914610221578063dc081cc914610234578063e767b7941461024757600080fd5b80636411e816146101b45780636999b377146101c75780638da5cb5b146101f457600080fd5b8063158ef93e116100a5578063158ef93e1461014a5780632d77138914610174578063485cc9551461019457600080fd5b806312261ee7146100cc57806313af40351461012857600080fd5b366100c757005b600080fd5b3480156100d857600080fd5b506003546100fe90610100900473ffffffffffffffffffffffffffffffffffffffff1681565b60405173ffffffffffffffffffffffffffffffffffffffff90911681526020015b60405180910390f35b34801561013457600080fd5b506101486101433660046126be565b61025a565b005b34801561015657600080fd5b506003546101649060ff1681565b604051901515815260200161011f565b34801561018057600080fd5b5061014861018f3660046126be565b610306565b3480156101a057600080fd5b506101486101af3660046126e2565b6103cb565b6101486101c2366004612767565b6104a4565b3480156101d357600080fd5b506001546100fe9073ffffffffffffffffffffffffffffffffffffffff1681565b34801561020057600080fd5b506000546100fe9073ffffffffffffffffffffffffffffffffffffffff1681565b61014861022f366004612815565b610620565b6101486102423660046128c7565b610804565b61014861025536600461290c565b61090b565b61026333610a80565b610299576040517f82b4290000000000000000000000000000000000000000000000000000000000815260040160405180910390fd5b600080547fffffffffffffffffffffffff00000000000000000000000000000000000000001673ffffffffffffffffffffffffffffffffffffffff8316908117825560405190917fce241d7ca1f669fee44b6fc00b8eba2df3bb514eed0f6f668f8f89096e81ed9491a250565b61030f33610a80565b610345576040517f82b4290000000000000000000000000000000000000000000000000000000000815260040160405180910390fd5b6001805473ffffffffffffffffffffffffffffffffffffffff8381167fffffffffffffffffffffffff000000000000000000000000000000000000000083168117909355604080519190921680825260208201939093527fb904ae9529e373e48bc82df4326cceaf1b4c472babf37f5b7dec46fecc6b53e0910160405180910390a15050565b60035460ff1615610408576040517f0dc149f000000000000000000000000000000000000000000000000000000000815260040160405180910390fd5b60038054600080547fffffffffffffffffffffffff00000000000000000000000000000000000000001673ffffffffffffffffffffffffffffffffffffffff9485161790557fffffffffffffffffffffff0000000000000000000000000000000000000000001661010093909216929092027fffffffffffffffffffffffffffffffffffffffffffffffffffffffffffffff0016176001179055565b6104ac610ab9565b8260008167ffffffffffffffff8111156104c8576104c8612970565b60405190808252806020026020018201604052801561058357816020015b6040805161016081018252600060a0820181815260c0830182905260e0830182905261010083018290526101208301829052606061014084018190529083528351808201855282815260208082018490528186018490528085019190915293830181905280830152608082015282527fffffffffffffffffffffffffffffffffffffffffffffffffffffffffffffffff9092019101816104e65790505b50905060005b828110156105fb576105d68787838181106105a6576105a661299f565b90506020028101906105b891906129ce565b8686848181106105ca576105ca61299f565b90506020020135610b2f565b8282815181106105e8576105e861299f565b6020908102919091010152600101610589565b5061060581610cbd565b61060e81610d13565b505061061a6001600255565b50505050565b610628610ab9565b8460008167ffffffffffffffff81111561064457610644612970565b6040519080825280602002602001820160405280156106ff57816020015b6040805161016081018252600060a0820181815260c0830182905260e0830182905261010083018290526101208301829052606061014084018190529083528351808201855282815260208082018490528186018490528085019190915293830181905280830152608082015282527fffffffffffffffffffffffffffffffffffffffffffffffffffffffffffffffff9092019101816106625790505b50905060005b8281101561076b576107468989838181106107225761072261299f565b905060200281019061073491906129ce565b8888848181106105ca576105ca61299f565b8282815181106107585761075861299f565b6020908102919091010152600101610705565b5061077581610cbd565b6040517f585da628000000000000000000000000000000000000000000000000000000008152339063585da628906107b590849088908890600401612bdf565b600060405180830381600087803b1580156107cf57600080fd5b505af11580156107e3573d6000803e3d6000fd5b505050506107f081610d13565b50506107fc6001600255565b505050505050565b61080c610ab9565b604080516001808252818301909252600091816020015b6040805161016081018252600060a0820181815260c0830182905260e0830182905261010083018290526101208301829052606061014084018190529083528351808201855282815260208082018490528186018490528085019190915293830181905280830152608082015282527fffffffffffffffffffffffffffffffffffffffffffffffffffffffffffffffff9092019101816108235790505090506108cc8383610b2f565b816000815181106108df576108df61299f565b60200260200101819052506108f381610cbd565b6108fc81610d13565b506109076001600255565b5050565b610913610ab9565b604080516001808252818301909252600091816020015b6040805161016081018252600060a0820181815260c0830182905260e0830182905261010083018290526101208301829052606061014084018190529083528351808201855282815260208082018490528186018490528085019190915293830181905280830152608082015282527fffffffffffffffffffffffffffffffffffffffffffffffffffffffffffffffff90920191018161092a5790505090506109d38585610b2f565b816000815181106109e6576109e661299f565b60200260200101819052506109fa81610cbd565b6040517f585da628000000000000000000000000000000000000000000000000000000008152339063585da62890610a3a90849087908790600401612bdf565b600060405180830381600087803b158015610a5457600080fd5b505af1158015610a68573d6000803e3d6000fd5b50505050610a7581610d13565b5061061a6001600255565b6000805473ffffffffffffffffffffffffffffffffffffffff90811690831603610aac57506001919050565b506000919050565b919050565b6002805403610b29576040517f08c379a000000000000000000000000000000000000000000000000000000000815260206004820152601f60248201527f5265656e7472616e637947756172643a207265656e7472616e742063616c6c0060448201526064015b60405180910390fd5b60028055565b6040805161016081018252600060a0820181815260c0830182905260e083018290526101008301829052610120830182905260606101408401819052908352835180820185528281526020808201849052818601849052840152928201839052828201929092526080810182905290610ba88480612ca5565b810190610bb5919061302f565b9050610bc081610e66565b6020810151604082015160a0830151600092610bdb92610fbf565b90506000610c00836020015184604001518560c001516110919092919063ffffffff16565b9050610c1d82828560e0015188611178909392919063ffffffff16565b6040805160a0810182528651815260208082018590529181018390529294509092506060820190610c5090890189612ca5565b8080601f016020809104026020016040519081016040528093929190818152602001838380828437600092019190915250505090825250602001610c9385611265565b9052606084015160208501516080860151929650610cb49287929190611570565b50505092915050565b805160005b81811015610d0e576000838281518110610cde57610cde61299f565b60200260200101519050610cf181611611565b610cfb8133611a8b565b610d058133611bc3565b50600101610cc2565b505050565b805160005b81811015610e55576000838281518110610d3457610d3461299f565b602002602001015190506000816040015151905060005b81811015610db557600083604001518281518110610d6b57610d6b61299f565b60200260200101519050610dac81604001518260200151836000015173ffffffffffffffffffffffffffffffffffffffff16611f649092919063ffffffff16565b50600101610d4b565b5081600001516020015173ffffffffffffffffffffffffffffffffffffffff163373ffffffffffffffffffffffffffffffffffffffff16868581518110610dfe57610dfe61299f565b6020026020010151608001517f78ad7ec0e9f89e74012afa58738b6b661c024cb0fd185ee2f616c0a28924bd66856000015160400151604051610e4391815260200190565b60405180910390a45050600101610d18565b504715610907576109073347611fab565b8060c0015151600114610ea5576040517fb85df39600000000000000000000000000000000000000000000000000000000815260040160405180910390fd5b60408101518151606001511015610ee8576040517f773a618700000000000000000000000000000000000000000000000000000000815260040160405180910390fd5b806020015181604001511015610f2a576040517f48fee69c00000000000000000000000000000000000000000000000000000000815260040160405180910390fd5b60a0810151604081015160209091015114610fbc578060c00151600081518110610f5657610f5661299f565b6020026020010151604001518160c00151600081518110610f7957610f7961299f565b60200260200101516020015114610fbc576040517fd303758b00000000000000000000000000000000000000000000000000000000815260040160405180910390fd5b50565b610ff96040518060600160405280600073ffffffffffffffffffffffffffffffffffffffff16815260200160008152602001600081525090565b83604001518460200151111561103b576040517f7c1f811300000000000000000000000000000000000000000000000000000000815260040160405180910390fd5b600061105185602001518660400151868661204a565b60408051606081018252875173ffffffffffffffffffffffffffffffffffffffff1681526020810192909252958601519581019590955250929392505050565b82516060908067ffffffffffffffff8111156110af576110af612970565b60405190808252806020026020018201604052801561111857816020015b60408051606081018252600080825260208083018290529282015282527fffffffffffffffffffffffffffffffffffffffffffffffffffffffffffffffff9092019101816110cd5790505b50915060005b8181101561116f5761114a86828151811061113b5761113b61299f565b602002602001015186866120e4565b83828151811061115c5761115c61299f565b602090810291909101015260010161111e565b50509392505050565b6111b26040518060600160405280600073ffffffffffffffffffffffffffffffffffffffff16815260200160008152602001600081525090565b60606111c28386602001516121b4565b60006111fb856000815181106111da576111da61299f565b6020026020010151602001518760200151896121ee9092919063ffffffff16565b905061122c878288602001518860008151811061121a5761121a61299f565b60200260200101516020015188612232565b86866020018181525050808560008151811061124a5761124a61299f565b60209081029190910181015101525093959294509192505050565b6040517f476c61646975734f72646572280000000000000000000000000000000000000060208201527f4f72646572496e666f20696e666f2c0000000000000000000000000000000000602d8201527f75696e74323536206465636179537461727454696d652c000000000000000000603c8201527f75696e74323536206465636179456e6454696d652c000000000000000000000060538201527f61646472657373206578636c757369766546696c6c65722c000000000000000060688201527f75696e74323536206578636c757369766974794f766572726964654270732c0060808201527f6164647265737320696e707574546f6b656e2c00000000000000000000000000609f8201527f75696e7432353620696e7075745374617274416d6f756e742c0000000000000060b28201527f75696e7432353620696e707574456e64416d6f756e742c00000000000000000060cb8201527f44757463684f75747075745b5d206f7574707574732c0000000000000000000060e28201527f75696e743235362066696c6c5468726573686f6c64290000000000000000000060f882015260009061010e01604080517fffffffffffffffffffffffffffffffffffffffffffffffffffffffffffffffe081840301815260808301909152605280835290919061344a60208301396040518060c00160405280608d81526020016134ca608d913960405160200161147e9392919061310f565b604051602081830303815290604052805190602001206114a18360000151612367565b83602001518460400151856060015186608001518760a00151600001518860a00151602001518960a00151604001516114dd8b60c00151612401565b60e0808d015160408051602081019d909d528c019a909a5260608b019890985260808a019690965273ffffffffffffffffffffffffffffffffffffffff94851660a08a015260c0890193909352921693860193909352610100850152610120840191909152610140830152610160820152610180015b604051602081830303815290604052805190602001209050919050565b61157a838361249f565b61061a57806115b5576040517fb9ec1e9600000000000000000000000000000000000000000000000000000000815260040160405180910390fd5b604084015160005b81518110156107fc5760008282815181106115da576115da61299f565b60200260200101519050611603846127106115f59190613181565b6020830151906127106124ec565b6020909101526001016115bd565b60015473ffffffffffffffffffffffffffffffffffffffff166116315750565b6001546040517f8aa6cf0300000000000000000000000000000000000000000000000000000000815260009173ffffffffffffffffffffffffffffffffffffffff1690638aa6cf0390611688908590600401613194565b600060405180830381865afa1580156116a5573d6000803e3d6000fd5b505050506040513d6000823e601f3d9081017fffffffffffffffffffffffffffffffffffffffffffffffffffffffffffffffe01682016040526116eb91908101906131a7565b60408301515181519192509060006117038284613181565b67ffffffffffffffff81111561171b5761171b612970565b60405190808252806020026020018201604052801561178457816020015b60408051606081018252600080825260208083018290529282015282527fffffffffffffffffffffffffffffffffffffffffffffffffffffffffffffffff9092019101816117395790505b50905060005b838110156117d557856040015181815181106117a8576117a861299f565b60200260200101518282815181106117c2576117c261299f565b602090810291909101015260010161178a565b5060005b82811015611a7c5760008582815181106117f5576117f561299f565b6020026020010151905060005b828110156118b35786818151811061181c5761181c61299f565b60200260200101516000015173ffffffffffffffffffffffffffffffffffffffff16826000015173ffffffffffffffffffffffffffffffffffffffff16036118ab5781516040517ffff0830300000000000000000000000000000000000000000000000000000000815273ffffffffffffffffffffffffffffffffffffffff9091166004820152602401610b20565b600101611802565b506000805b86811015611938576000896040015182815181106118d8576118d861299f565b60200260200101519050836000015173ffffffffffffffffffffffffffffffffffffffff16816000015173ffffffffffffffffffffffffffffffffffffffff160361192f57602081015161192c9084613181565b92505b506001016118b8565b50815160208901515173ffffffffffffffffffffffffffffffffffffffff9182169116036119755760208089015101516119729082613181565b90505b806000036119ca5781516040517feddf07f500000000000000000000000000000000000000000000000000000000815273ffffffffffffffffffffffffffffffffffffffff9091166004820152602401610b20565b6119d88160056127106124ec565b82602001511115611a4b578151602083015160408085015190517f82e7565600000000000000000000000000000000000000000000000000000000815273ffffffffffffffffffffffffffffffffffffffff93841660048201526024810192909252919091166044820152606401610b20565b8184611a578589613181565b81518110611a6757611a6761299f565b602090810291909101015250506001016117d9565b50604090940193909352505050565b81515173ffffffffffffffffffffffffffffffffffffffff163014611adc576040517f4ddf4a6400000000000000000000000000000000000000000000000000000000815260040160405180910390fd5b815160600151421115611b1b576040517f70f65caa00000000000000000000000000000000000000000000000000000000815260040160405180910390fd5b81516080015173ffffffffffffffffffffffffffffffffffffffff1615610907578151608001516040517f6e84ba2b00000000000000000000000000000000000000000000000000000000815273ffffffffffffffffffffffffffffffffffffffff90911690636e84ba2b90611b979084908690600401613277565b60006040518083038186803b158015611baf57600080fd5b505afa1580156107fc573d6000803e3d6000fd5b600354610100900473ffffffffffffffffffffffffffffffffffffffff1663137c29fe611c6a846040805160a0810182526000606082018181526080830182905282526020820181905291810191909152506040805160a081018252602080840180515173ffffffffffffffffffffffffffffffffffffffff1660608085019182529151850151608085015283528451840151918301919091529251909201519082015290565b6040805180820182526000808252602091820152815180830190925273ffffffffffffffffffffffffffffffffffffffff861682528087015181015190820152856000015160200151866080015160405180608001604052806052815260200161344a60529139604080517f476c61646975734f72646572280000000000000000000000000000000000000060208201527f4f72646572496e666f20696e666f2c0000000000000000000000000000000000602d8201527f75696e74323536206465636179537461727454696d652c000000000000000000603c8201527f75696e74323536206465636179456e6454696d652c000000000000000000000060538201527f61646472657373206578636c757369766546696c6c65722c000000000000000060688201527f75696e74323536206578636c757369766974794f766572726964654270732c0060808201527f6164647265737320696e707574546f6b656e2c00000000000000000000000000609f8201527f75696e7432353620696e7075745374617274416d6f756e742c0000000000000060b28201527f75696e7432353620696e707574456e64416d6f756e742c00000000000000000060cb8201527f44757463684f75747075745b5d206f7574707574732c0000000000000000000060e28201527f75696e743235362066696c6c5468726573686f6c64290000000000000000000060f8820152815160ee8183030181526101ce8201909252608d61010e8201818152916134ca9061012e01396040518060600160405280602e815260200161349c602e9139604051602001611ec994939291906132a6565b604080517fffffffffffffffffffffffffffffffffffffffffffffffffffffffffffffffe08184030181529082905260608a01517fffffffff0000000000000000000000000000000000000000000000000000000060e089901b168352611f36969594939260040161332f565b600060405180830381600087803b158015611f5057600080fd5b505af11580156107fc573d6000803e3d6000fd5b73ffffffffffffffffffffffffffffffffffffffff8316611f8957610d0e8282611fab565b610d0e73ffffffffffffffffffffffffffffffffffffffff8416338484612528565b60008273ffffffffffffffffffffffffffffffffffffffff1682611af490604051600060405180830381858888f193505050503d806000811461200a576040519150601f19603f3d011682016040523d82523d6000602084013e61200f565b606091505b5050905080610d0e576040517ff4b3b1bc00000000000000000000000000000000000000000000000000000000815260040160405180910390fd5b600082821015612086576040517f4313345300000000000000000000000000000000000000000000000000000000815260040160405180910390fd5b4282116120945750826120dc565b4283106120a25750836120dc565b42839003838303868610156120c7576120be86880383836124ec565b870392506120d9565b6120d487870383836124ec565b870192505b50505b949350505050565b6040805160608101825260008082526020820181905291810191909152836040015184602001511015612143576040517f7c1f811300000000000000000000000000000000000000000000000000000000815260040160405180910390fd5b600061215985602001518660400151868661204a565b90506040518060600160405280866000015173ffffffffffffffffffffffffffffffffffffffff168152602001828152602001866060015173ffffffffffffffffffffffffffffffffffffffff168152509150509392505050565b80821115610907576040517faabd5a0900000000000000000000000000000000000000000000000000000000815260040160405180910390fd5b6000827fffffffffffffffffffffffffffffffffffffffffffffffffffffffffffffffff048411830215820261222357600080fd5b50910281810615159190040190565b8285118061223f57508184115b15612276576040517f0fa27c7d00000000000000000000000000000000000000000000000000000000815260040160405180910390fd5b841580612281575083155b156122b8576040517f3a672a9800000000000000000000000000000000000000000000000000000000815260040160405180910390fd5b808510156122f2576040517f4392460300000000000000000000000000000000000000000000000000000000815260040160405180910390fd5b6000836122ff84886133f7565b612309919061340e565b9050600061231787866133f7565b612323836103e86133f7565b108015915061235e576040517fd36ff1a800000000000000000000000000000000000000000000000000000000815260040160405180910390fd5b50505050505050565b60006040518060c00160405280608d81526020016134ca608d913980516020918201208351848301516040808701516060880151608089015160a08a0151805190890120935161155398939492939192910196875273ffffffffffffffffffffffffffffffffffffffff958616602088015293851660408701526060860192909252608085015290911660a083015260c082015260e00190565b600080825160200267ffffffffffffffff81111561242157612421612970565b6040519080825280601f01601f19166020018201604052801561244b576020820181803683370190505b50905060005b835181101561249057600061247e8583815181106124715761247161299f565b602002602001015161261a565b60208381028501015250600101612451565b50805160209091012092915050565b600073ffffffffffffffffffffffffffffffffffffffff831615806124c357508142115b806124e3575073ffffffffffffffffffffffffffffffffffffffff831633145b90505b92915050565b6000827fffffffffffffffffffffffffffffffffffffffffffffffffffffffffffffffff048411830215820261252157600080fd5b5091020490565b60006040517f23b872dd00000000000000000000000000000000000000000000000000000000815273ffffffffffffffffffffffffffffffffffffffff8516600482015273ffffffffffffffffffffffffffffffffffffffff841660248201528260448201526020600060648360008a5af13d15601f3d1160016000511416171691505080612613576040517f08c379a000000000000000000000000000000000000000000000000000000000815260206004820152601460248201527f5452414e534645525f46524f4d5f4641494c45440000000000000000000000006044820152606401610b20565b5050505050565b600060405180608001604052806052815260200161344a60529139805160209182012083518483015160408087015160608801519151611553969192910194855273ffffffffffffffffffffffffffffffffffffffff93841660208601526040850192909252606084015216608082015260a00190565b73ffffffffffffffffffffffffffffffffffffffff81168114610fbc57600080fd5b8035610ab481612691565b6000602082840312156126d057600080fd5b81356126db81612691565b9392505050565b600080604083850312156126f557600080fd5b823561270081612691565b9150602083013561271081612691565b809150509250929050565b60008083601f84011261272d57600080fd5b50813567ffffffffffffffff81111561274557600080fd5b6020830191508360208260051b850101111561276057600080fd5b9250929050565b6000806000806040858703121561277d57600080fd5b843567ffffffffffffffff8082111561279557600080fd5b6127a18883890161271b565b909650945060208701359150808211156127ba57600080fd5b506127c78782880161271b565b95989497509550505050565b60008083601f8401126127e557600080fd5b50813567ffffffffffffffff8111156127fd57600080fd5b60208301915083602082850101111561276057600080fd5b6000806000806000806060878903121561282e57600080fd5b863567ffffffffffffffff8082111561284657600080fd5b6128528a838b0161271b565b9098509650602089013591508082111561286b57600080fd5b6128778a838b0161271b565b9096509450604089013591508082111561289057600080fd5b5061289d89828a016127d3565b979a9699509497509295939492505050565b6000604082840312156128c157600080fd5b50919050565b600080604083850312156128da57600080fd5b823567ffffffffffffffff8111156128f157600080fd5b6128fd858286016128af565b95602094909401359450505050565b6000806000806060858703121561292257600080fd5b843567ffffffffffffffff8082111561293a57600080fd5b612946888389016128af565b955060208701359450604087013591508082111561296357600080fd5b506127c7878288016127d3565b7f4e487b7100000000000000000000000000000000000000000000000000000000600052604160045260246000fd5b7f4e487b7100000000000000000000000000000000000000000000000000000000600052603260045260246000fd5b600082357fffffffffffffffffffffffffffffffffffffffffffffffffffffffffffffffc1833603018112612a0257600080fd5b9190910192915050565b60005b83811015612a27578181015183820152602001612a0f565b50506000910152565b60008151808452612a48816020860160208601612a0c565b601f017fffffffffffffffffffffffffffffffffffffffffffffffffffffffffffffffe0169290920160200192915050565b600081518084526020808501945080840160005b83811015612ad9578151805173ffffffffffffffffffffffffffffffffffffffff908116895284820151858a0152604091820151169088015260609096019590820190600101612a8e565b509495945050505050565b6000815160e0845273ffffffffffffffffffffffffffffffffffffffff8082511660e08601528060208301511661010086015260408201516101208601526060820151610140860152806080830151166101608601525060a0810151905060c0610180850152612b586101a0850182612a30565b90506020830151612b966020860182805173ffffffffffffffffffffffffffffffffffffffff16825260208082015190830152604090810151910152565b5060408301518482036080860152612bae8282612a7a565b915050606083015184820360a0860152612bc88282612a30565b915050608083015160c08501528091505092915050565b6000604082016040835280865180835260608501915060608160051b8601019250602080890160005b83811015612c54577fffffffffffffffffffffffffffffffffffffffffffffffffffffffffffffffa0888703018552612c42868351612ae4565b95509382019390820190600101612c08565b5050858403818701528684528688828601376000848801820152601f9096017fffffffffffffffffffffffffffffffffffffffffffffffffffffffffffffffe0169092019094019695505050505050565b60008083357fffffffffffffffffffffffffffffffffffffffffffffffffffffffffffffffe1843603018112612cda57600080fd5b83018035915067ffffffffffffffff821115612cf557600080fd5b60200191503681900382131561276057600080fd5b6040516060810167ffffffffffffffff81118282101715612d2d57612d2d612970565b60405290565b6040516080810167ffffffffffffffff81118282101715612d2d57612d2d612970565b604051610100810167ffffffffffffffff81118282101715612d2d57612d2d612970565b604051601f82017fffffffffffffffffffffffffffffffffffffffffffffffffffffffffffffffe016810167ffffffffffffffff81118282101715612dc157612dc1612970565b604052919050565b600082601f830112612dda57600080fd5b813567ffffffffffffffff811115612df457612df4612970565b612e2560207fffffffffffffffffffffffffffffffffffffffffffffffffffffffffffffffe0601f84011601612d7a565b818152846020838601011115612e3a57600080fd5b816020850160208301376000918101602001919091529392505050565b600060c08284031215612e6957600080fd5b60405160c0810167ffffffffffffffff8282108183111715612e8d57612e8d612970565b8160405282935084359150612ea182612691565b908252602084013590612eb382612691565b816020840152604085013560408401526060850135606084015260808501359150612edd82612691565b81608084015260a0850135915080821115612ef757600080fd5b50612f0485828601612dc9565b60a0830152505092915050565b600060608284031215612f2357600080fd5b612f2b612d0a565b90508135612f3881612691565b80825250602082013560208201526040820135604082015292915050565b600067ffffffffffffffff821115612f7057612f70612970565b5060051b60200190565b600082601f830112612f8b57600080fd5b81356020612fa0612f9b83612f56565b612d7a565b82815260079290921b84018101918181019086841115612fbf57600080fd5b8286015b848110156130245760808189031215612fdc5760008081fd5b612fe4612d33565b8135612fef81612691565b815281850135858201526040808301359082015260608083013561301281612691565b90820152835291830191608001612fc3565b509695505050505050565b60006020828403121561304157600080fd5b813567ffffffffffffffff8082111561305957600080fd5b90830190610140828603121561306e57600080fd5b613076612d56565b82358281111561308557600080fd5b61309187828601612e57565b82525060208301356020820152604083013560408201526130b4606084016126b3565b6060820152608083013560808201526130d08660a08501612f11565b60a0820152610100830135828111156130e857600080fd5b6130f487828601612f7a565b60c083015250610120929092013560e0830152509392505050565b60008451613121818460208901612a0c565b845190830190613135818360208901612a0c565b8451910190613148818360208801612a0c565b0195945050505050565b7f4e487b7100000000000000000000000000000000000000000000000000000000600052601160045260246000fd5b808201808211156124e6576124e6613152565b6020815260006124e36020830184612ae4565b600060208083850312156131ba57600080fd5b825167ffffffffffffffff8111156131d157600080fd5b8301601f810185136131e257600080fd5b80516131f0612f9b82612f56565b8181526060918202830184019184820191908884111561320f57600080fd5b938501935b8385101561326b5780858a03121561322c5760008081fd5b613234612d0a565b855161323f81612691565b8152858701518782015260408087015161325881612691565b9082015283529384019391850191613214565b50979650505050505050565b73ffffffffffffffffffffffffffffffffffffffff831681526040602082015260006120dc6040830184612ae4565b7f476c61646975734f72646572207769746e6573732900000000000000000000008152600085516132de816015850160208a01612a0c565b8551908301906132f5816015840160208a01612a0c565b855191019061330b816015840160208901612a0c565b8451910190613321816015840160208801612a0c565b016015019695505050505050565b600061014061335f838a51805173ffffffffffffffffffffffffffffffffffffffff168252602090810151910152565b60208901516040840152604089015160608401526133a06080840189805173ffffffffffffffffffffffffffffffffffffffff168252602090810151910152565b73ffffffffffffffffffffffffffffffffffffffff871660c08401528560e0840152806101008401526133d581840186612a30565b90508281036101208401526133ea8185612a30565b9998505050505050505050565b80820281158282048414176124e6576124e6613152565b600082613444577f4e487b7100000000000000000000000000000000000000000000000000000000600052601260045260246000fd5b50069056fe44757463684f7574707574286164647265737320746f6b656e2c75696e74323536207374617274416d6f756e742c75696e7432353620656e64416d6f756e742c6164647265737320726563697069656e7429546f6b656e5065726d697373696f6e73286164647265737320746f6b656e2c75696e7432353620616d6f756e74294f72646572496e666f28616464726573732072656163746f722c6164647265737320737761707065722c75696e74323536206e6f6e63652c75696e7432353620646561646c696e652c61646472657373206164646974696f6e616c56616c69646174696f6e436f6e74726163742c6279746573206164646974696f6e616c56616c69646174696f6e4461746129a2646970667358221220633bd89617fd2d58235bb7dc84fe24c756051abf36223b1d0d030c000362667664736f6c63430008130033",
    "linkReferences": {}
  },
  "methodIdentifiers": {
    "execute((bytes,bytes),uint256)": "dc081cc9",
    "executeBatch((bytes,bytes)[],uint256[])": "6411e816",
    "executeBatchWithCallback((bytes,bytes)[],uint256[],bytes)": "bccd8d09",
    "executeWithCallback((bytes,bytes),uint256,bytes)": "e767b794",
    "feeController()": "6999b377",
    "initialize(address,address)": "485cc955",
    "initialized()": "158ef93e",
    "owner()": "8da5cb5b",
    "permit2()": "12261ee7",
    "setOwner(address)": "13af4035",
    "setProtocolFeeController(address)": "2d771389"
  },
  "id": 82
}